{
  "contractName": "StarNotary",
  "abi": [
    {
      "inputs": [],
      "stateMutability": "nonpayable",
      "type": "constructor"
    },
    {
      "anonymous": false,
      "inputs": [
        {
          "indexed": true,
          "internalType": "address",
          "name": "owner",
          "type": "address"
        },
        {
          "indexed": true,
          "internalType": "address",
          "name": "approved",
          "type": "address"
        },
        {
          "indexed": true,
          "internalType": "uint256",
          "name": "tokenId",
          "type": "uint256"
        }
      ],
      "name": "Approval",
      "type": "event"
    },
    {
      "anonymous": false,
      "inputs": [
        {
          "indexed": true,
          "internalType": "address",
          "name": "owner",
          "type": "address"
        },
        {
          "indexed": true,
          "internalType": "address",
          "name": "operator",
          "type": "address"
        },
        {
          "indexed": false,
          "internalType": "bool",
          "name": "approved",
          "type": "bool"
        }
      ],
      "name": "ApprovalForAll",
      "type": "event"
    },
    {
      "anonymous": false,
      "inputs": [
        {
          "indexed": true,
          "internalType": "address",
          "name": "from",
          "type": "address"
        },
        {
          "indexed": true,
          "internalType": "address",
          "name": "to",
          "type": "address"
        },
        {
          "indexed": true,
          "internalType": "uint256",
          "name": "tokenId",
          "type": "uint256"
        }
      ],
      "name": "Transfer",
      "type": "event"
    },
    {
      "inputs": [
        {
          "internalType": "address",
          "name": "to",
          "type": "address"
        },
        {
          "internalType": "uint256",
          "name": "tokenId",
          "type": "uint256"
        }
      ],
      "name": "approve",
      "outputs": [],
      "stateMutability": "nonpayable",
      "type": "function"
    },
    {
      "inputs": [
        {
          "internalType": "address",
          "name": "owner",
          "type": "address"
        }
      ],
      "name": "balanceOf",
      "outputs": [
        {
          "internalType": "uint256",
          "name": "",
          "type": "uint256"
        }
      ],
      "stateMutability": "view",
      "type": "function",
      "constant": true
    },
    {
      "inputs": [
        {
          "internalType": "uint256",
          "name": "tokenId",
          "type": "uint256"
        }
      ],
      "name": "getApproved",
      "outputs": [
        {
          "internalType": "address",
          "name": "",
          "type": "address"
        }
      ],
      "stateMutability": "view",
      "type": "function",
      "constant": true
    },
    {
      "inputs": [
        {
          "internalType": "address",
          "name": "owner",
          "type": "address"
        },
        {
          "internalType": "address",
          "name": "operator",
          "type": "address"
        }
      ],
      "name": "isApprovedForAll",
      "outputs": [
        {
          "internalType": "bool",
          "name": "",
          "type": "bool"
        }
      ],
      "stateMutability": "view",
      "type": "function",
      "constant": true
    },
    {
      "inputs": [],
      "name": "name",
      "outputs": [
        {
          "internalType": "string",
          "name": "",
          "type": "string"
        }
      ],
      "stateMutability": "view",
      "type": "function",
      "constant": true
    },
    {
      "inputs": [
        {
          "internalType": "uint256",
          "name": "tokenId",
          "type": "uint256"
        }
      ],
      "name": "ownerOf",
      "outputs": [
        {
          "internalType": "address",
          "name": "",
          "type": "address"
        }
      ],
      "stateMutability": "view",
      "type": "function",
      "constant": true
    },
    {
      "inputs": [
        {
          "internalType": "address",
          "name": "from",
          "type": "address"
        },
        {
          "internalType": "address",
          "name": "to",
          "type": "address"
        },
        {
          "internalType": "uint256",
          "name": "tokenId",
          "type": "uint256"
        }
      ],
      "name": "safeTransferFrom",
      "outputs": [],
      "stateMutability": "nonpayable",
      "type": "function"
    },
    {
      "inputs": [
        {
          "internalType": "address",
          "name": "from",
          "type": "address"
        },
        {
          "internalType": "address",
          "name": "to",
          "type": "address"
        },
        {
          "internalType": "uint256",
          "name": "tokenId",
          "type": "uint256"
        },
        {
          "internalType": "bytes",
          "name": "_data",
          "type": "bytes"
        }
      ],
      "name": "safeTransferFrom",
      "outputs": [],
      "stateMutability": "nonpayable",
      "type": "function"
    },
    {
      "inputs": [
        {
          "internalType": "address",
          "name": "operator",
          "type": "address"
        },
        {
          "internalType": "bool",
          "name": "approved",
          "type": "bool"
        }
      ],
      "name": "setApprovalForAll",
      "outputs": [],
      "stateMutability": "nonpayable",
      "type": "function"
    },
    {
      "inputs": [
        {
          "internalType": "address",
          "name": "",
          "type": "address"
        },
        {
          "internalType": "uint256",
          "name": "",
          "type": "uint256"
        }
      ],
      "name": "starsByOwner",
      "outputs": [
        {
          "internalType": "string",
          "name": "name",
          "type": "string"
        },
        {
          "internalType": "string",
          "name": "color",
          "type": "string"
        },
        {
          "internalType": "uint256",
          "name": "price",
          "type": "uint256"
        }
      ],
      "stateMutability": "view",
      "type": "function",
      "constant": true
    },
    {
      "inputs": [
        {
          "internalType": "uint256",
          "name": "",
          "type": "uint256"
        }
      ],
      "name": "starsForSale",
      "outputs": [
        {
          "internalType": "string",
          "name": "name",
          "type": "string"
        },
        {
          "internalType": "string",
          "name": "color",
          "type": "string"
        },
        {
          "internalType": "uint256",
          "name": "price",
          "type": "uint256"
        }
      ],
      "stateMutability": "view",
      "type": "function",
      "constant": true
    },
    {
      "inputs": [
        {
          "internalType": "uint256",
          "name": "",
          "type": "uint256"
        }
      ],
      "name": "starsForSalePrice",
      "outputs": [
        {
          "internalType": "uint256",
          "name": "",
          "type": "uint256"
        }
      ],
      "stateMutability": "view",
      "type": "function",
      "constant": true
    },
    {
      "inputs": [
        {
          "internalType": "bytes4",
          "name": "interfaceId",
          "type": "bytes4"
        }
      ],
      "name": "supportsInterface",
      "outputs": [
        {
          "internalType": "bool",
          "name": "",
          "type": "bool"
        }
      ],
      "stateMutability": "view",
      "type": "function",
      "constant": true
    },
    {
      "inputs": [],
      "name": "symbol",
      "outputs": [
        {
          "internalType": "string",
          "name": "",
          "type": "string"
        }
      ],
      "stateMutability": "view",
      "type": "function",
      "constant": true
    },
    {
      "inputs": [
        {
          "internalType": "uint256",
          "name": "",
          "type": "uint256"
        }
      ],
      "name": "tokenIdToStarInfo",
      "outputs": [
        {
          "internalType": "string",
          "name": "name",
          "type": "string"
        },
        {
          "internalType": "string",
          "name": "color",
          "type": "string"
        },
        {
          "internalType": "uint256",
          "name": "price",
          "type": "uint256"
        }
      ],
      "stateMutability": "view",
      "type": "function",
      "constant": true
    },
    {
      "inputs": [
        {
          "internalType": "uint256",
          "name": "tokenId",
          "type": "uint256"
        }
      ],
      "name": "tokenURI",
      "outputs": [
        {
          "internalType": "string",
          "name": "",
          "type": "string"
        }
      ],
      "stateMutability": "view",
      "type": "function",
      "constant": true
    },
    {
      "inputs": [
        {
          "internalType": "address",
          "name": "from",
          "type": "address"
        },
        {
          "internalType": "address",
          "name": "to",
          "type": "address"
        },
        {
          "internalType": "uint256",
          "name": "tokenId",
          "type": "uint256"
        }
      ],
      "name": "transferFrom",
      "outputs": [],
      "stateMutability": "nonpayable",
      "type": "function"
    },
    {
      "inputs": [
        {
          "internalType": "string",
          "name": "_name",
          "type": "string"
        },
        {
          "internalType": "string",
          "name": "_color",
          "type": "string"
        },
        {
          "internalType": "uint256",
          "name": "_tokenId",
          "type": "uint256"
        }
      ],
      "name": "createStar",
      "outputs": [],
      "stateMutability": "nonpayable",
      "type": "function"
    },
    {
      "inputs": [
        {
          "internalType": "uint256",
          "name": "_tokenId",
          "type": "uint256"
        },
        {
          "internalType": "uint256",
          "name": "_price",
          "type": "uint256"
        },
        {
          "internalType": "uint256",
          "name": "_index",
          "type": "uint256"
        }
      ],
      "name": "putStarUpForSale",
      "outputs": [],
      "stateMutability": "nonpayable",
      "type": "function"
    },
    {
      "inputs": [
        {
          "internalType": "uint256",
          "name": "_tokenId",
          "type": "uint256"
        },
        {
          "internalType": "uint256",
          "name": "_index",
          "type": "uint256"
        }
      ],
      "name": "buyStar",
      "outputs": [],
      "stateMutability": "payable",
      "type": "function",
      "payable": true
    },
    {
      "inputs": [
        {
          "internalType": "uint256",
          "name": "_tokenId",
          "type": "uint256"
        }
      ],
      "name": "lookUptokenIdToStarInfo",
      "outputs": [
        {
          "components": [
            {
              "internalType": "string",
              "name": "name",
              "type": "string"
            },
            {
              "internalType": "string",
              "name": "color",
              "type": "string"
            },
            {
              "internalType": "uint256",
              "name": "price",
              "type": "uint256"
            }
          ],
          "internalType": "struct StarNotary.Star",
          "name": "",
          "type": "tuple"
        }
      ],
      "stateMutability": "view",
      "type": "function",
      "constant": true
    },
    {
      "inputs": [
        {
          "internalType": "uint256",
          "name": "_tokenId1",
          "type": "uint256"
        },
        {
          "internalType": "uint256",
          "name": "_tokenId2",
          "type": "uint256"
        },
        {
          "internalType": "uint256",
          "name": "_index",
          "type": "uint256"
        }
      ],
      "name": "exchangeStars",
      "outputs": [],
      "stateMutability": "nonpayable",
      "type": "function"
    },
    {
      "inputs": [
        {
          "internalType": "address",
          "name": "_to1",
          "type": "address"
        },
        {
          "internalType": "uint256",
          "name": "_tokenId",
          "type": "uint256"
        },
        {
          "internalType": "uint256",
          "name": "_index",
          "type": "uint256"
        }
      ],
      "name": "transferStar",
      "outputs": [],
      "stateMutability": "nonpayable",
      "type": "function"
    },
    {
      "inputs": [],
      "name": "getStarsByOwner",
      "outputs": [
        {
          "components": [
            {
              "internalType": "string",
              "name": "name",
              "type": "string"
            },
            {
              "internalType": "string",
              "name": "color",
              "type": "string"
            },
            {
              "internalType": "uint256",
              "name": "price",
              "type": "uint256"
            }
          ],
          "internalType": "struct StarNotary.Star[]",
          "name": "",
          "type": "tuple[]"
        }
      ],
      "stateMutability": "view",
      "type": "function",
      "constant": true
    },
    {
      "inputs": [],
      "name": "getStarsForSale",
      "outputs": [
        {
          "components": [
            {
              "internalType": "string",
              "name": "name",
              "type": "string"
            },
            {
              "internalType": "string",
              "name": "color",
              "type": "string"
            },
            {
              "internalType": "uint256",
              "name": "price",
              "type": "uint256"
            }
          ],
          "internalType": "struct StarNotary.Star[]",
          "name": "",
          "type": "tuple[]"
        }
      ],
      "stateMutability": "view",
      "type": "function",
      "constant": true
    }
  ],
  "bytecode": "0x60806040523480156200001157600080fd5b506040518060400160405280600981526020017f53746172546f6b656e00000000000000000000000000000000000000000000008152506040518060400160405280600381526020017f5354520000000000000000000000000000000000000000000000000000000000815250816000908051906020019062000096929190620000b8565b508060019080519060200190620000af929190620000b8565b505050620001cd565b828054620000c69062000168565b90600052602060002090601f016020900481019282620000ea576000855562000136565b82601f106200010557805160ff191683800117855562000136565b8280016001018555821562000136579182015b828111156200013557825182559160200191906001019062000118565b5b50905062000145919062000149565b5090565b5b80821115620001645760008160009055506001016200014a565b5090565b600060028204905060018216806200018157607f821691505b602082108114156200019857620001976200019e565b5b50919050565b7f4e487b7100000000000000000000000000000000000000000000000000000000600052602260045260246000fd5b614d8d80620001dd6000396000f3fe6080604052600436106101665760003560e01c80635656645f116100d1578063a22cb4651161008a578063c87b56dd11610064578063c87b56dd14610576578063d7830ccb146105b3578063e985e9c5146105f0578063f62eded91461062d57610166565b8063a22cb465146104f9578063b88d4fde14610522578063bf4b73151461054b57610166565b80635656645f146103af5780636352211e146103ee57806370a082311461042b57806374f755c5146104685780638d1e6ec41461049157806395d89b41146104ce57610166565b80631967fd98116101235780631967fd98146102a157806323b872dd146102e057806327fbefe81461030957806342842e0e14610332578063438e51601461035b57806354b690d81461038457610166565b806301ffc9a71461016b578063046bc58e146101a85780630564b130146101d157806306fdde0314610210578063081812fc1461023b578063095ea7b314610278575b600080fd5b34801561017757600080fd5b50610192600480360381019061018d9190613852565b610649565b60405161019f9190614025565b60405180910390f35b3480156101b457600080fd5b506101cf60048036038101906101ca9190613803565b61072b565b005b3480156101dd57600080fd5b506101f860048036038101906101f39190613923565b610ad3565b60405161020793929190614062565b60405180910390f35b34801561021c57600080fd5b50610225610c1d565b6040516102329190614040565b60405180910390f35b34801561024757600080fd5b50610262600480360381019061025d9190613923565b610caf565b60405161026f9190613f9c565b60405180910390f35b34801561028457600080fd5b5061029f600480360381019061029a91906137c7565b610d34565b005b3480156102ad57600080fd5b506102c860048036038101906102c39190613923565b610e4c565b6040516102d793929190614062565b60405180910390f35b3480156102ec57600080fd5b50610307600480360381019061030291906136c1565b610f86565b005b34801561031557600080fd5b50610330600480360381019061032b9190613988565b610fe6565b005b34801561033e57600080fd5b50610359600480360381019061035491906136c1565b6111b8565b005b34801561036757600080fd5b50610382600480360381019061037d91906138a4565b6111d8565b005b34801561039057600080fd5b50610399611312565b6040516103a69190614003565b60405180910390f35b3480156103bb57600080fd5b506103d660048036038101906103d191906137c7565b61149f565b6040516103e593929190614062565b60405180910390f35b3480156103fa57600080fd5b5061041560048036038101906104109190613923565b6115f6565b6040516104229190613f9c565b60405180910390f35b34801561043757600080fd5b50610452600480360381019061044d919061365c565b6116a8565b60405161045f9190614349565b60405180910390f35b34801561047457600080fd5b5061048f600480360381019061048a9190613988565b611760565b005b34801561049d57600080fd5b506104b860048036038101906104b39190613923565b611c0c565b6040516104c59190614349565b60405180910390f35b3480156104da57600080fd5b506104e3611c24565b6040516104f09190614040565b60405180910390f35b34801561050557600080fd5b50610520600480360381019061051b919061378b565b611cb6565b005b34801561052e57600080fd5b5061054960048036038101906105449190613710565b611e37565b005b34801561055757600080fd5b50610560611e99565b60405161056d9190614003565b60405180910390f35b34801561058257600080fd5b5061059d60048036038101906105989190613923565b612063565b6040516105aa9190614040565b60405180910390f35b3480156105bf57600080fd5b506105da60048036038101906105d59190613923565b61210a565b6040516105e79190614327565b60405180910390f35b3480156105fc57600080fd5b5061061760048036038101906106129190613685565b612265565b6040516106249190614025565b60405180910390f35b6106476004803603810190610642919061394c565b6122f9565b005b60007f80ac58cd000000000000000000000000000000000000000000000000000000007bffffffffffffffffffffffffffffffffffffffffffffffffffffffff1916827bffffffffffffffffffffffffffffffffffffffffffffffffffffffff1916148061071457507f5b5e139f000000000000000000000000000000000000000000000000000000007bffffffffffffffffffffffffffffffffffffffffffffffffffffffff1916827bffffffffffffffffffffffffffffffffffffffffffffffffffffffff1916145b80610724575061072382612551565b5b9050919050565b610734826115f6565b73ffffffffffffffffffffffffffffffffffffffff163373ffffffffffffffffffffffffffffffffffffffff16146107a1576040517f08c379a0000000000000000000000000000000000000000000000000000000008152600401610798906140c7565b60405180910390fd5b6107ac3384846125bb565b600760003373ffffffffffffffffffffffffffffffffffffffff1673ffffffffffffffffffffffffffffffffffffffff1681526020019081526020016000206001600760003373ffffffffffffffffffffffffffffffffffffffff1673ffffffffffffffffffffffffffffffffffffffff1681526020019081526020016000208054905061083a919061451f565b81548110610871577f4e487b7100000000000000000000000000000000000000000000000000000000600052603260045260246000fd5b9060005260206000209060030201600760003373ffffffffffffffffffffffffffffffffffffffff1673ffffffffffffffffffffffffffffffffffffffff16815260200190815260200160002082815481106108f6577f4e487b7100000000000000000000000000000000000000000000000000000000600052603260045260246000fd5b9060005260206000209060030201600082018160000190805461091890614609565b610923929190613392565b50600182018160010190805461093890614609565b610943929190613392565b5060028201548160020155905050600760003373ffffffffffffffffffffffffffffffffffffffff1673ffffffffffffffffffffffffffffffffffffffff1681526020019081526020016000208054806109c6577f4e487b7100000000000000000000000000000000000000000000000000000000600052603160045260246000fd5b6001900381819060005260206000209060030201600080820160006109eb919061341f565b6001820160006109fb919061341f565b600282016000905550509055600760008473ffffffffffffffffffffffffffffffffffffffff1673ffffffffffffffffffffffffffffffffffffffff1681526020019081526020016000206006600084815260200190815260200160002090806001815401808255809150506001900390600052602060002090600302016000909190919091506000820181600001908054610a9690614609565b610aa1929190613392565b506001820181600101908054610ab690614609565b610ac1929190613392565b50600282015481600201555050505050565b60098181548110610ae357600080fd5b9060005260206000209060030201600091509050806000018054610b0690614609565b80601f0160208091040260200160405190810160405280929190818152602001828054610b3290614609565b8015610b7f5780601f10610b5457610100808354040283529160200191610b7f565b820191906000526020600020905b815481529060010190602001808311610b6257829003601f168201915b505050505090806001018054610b9490614609565b80601f0160208091040260200160405190810160405280929190818152602001828054610bc090614609565b8015610c0d5780601f10610be257610100808354040283529160200191610c0d565b820191906000526020600020905b815481529060010190602001808311610bf057829003601f168201915b5050505050908060020154905083565b606060008054610c2c90614609565b80601f0160208091040260200160405190810160405280929190818152602001828054610c5890614609565b8015610ca55780601f10610c7a57610100808354040283529160200191610ca5565b820191906000526020600020905b815481529060010190602001808311610c8857829003601f168201915b5050505050905090565b6000610cba82612817565b610cf9576040517f08c379a0000000000000000000000000000000000000000000000000000000008152600401610cf090614247565b60405180910390fd5b6004600083815260200190815260200160002060009054906101000a900473ffffffffffffffffffffffffffffffffffffffff169050919050565b6000610d3f826115f6565b90508073ffffffffffffffffffffffffffffffffffffffff168373ffffffffffffffffffffffffffffffffffffffff161415610db0576040517f08c379a0000000000000000000000000000000000000000000000000000000008152600401610da7906142c7565b60405180910390fd5b8073ffffffffffffffffffffffffffffffffffffffff16610dcf612883565b73ffffffffffffffffffffffffffffffffffffffff161480610dfe5750610dfd81610df8612883565b612265565b5b610e3d576040517f08c379a0000000000000000000000000000000000000000000000000000000008152600401610e34906141c7565b60405180910390fd5b610e47838361288b565b505050565b6006602052806000526040600020600091509050806000018054610e6f90614609565b80601f0160208091040260200160405190810160405280929190818152602001828054610e9b90614609565b8015610ee85780601f10610ebd57610100808354040283529160200191610ee8565b820191906000526020600020905b815481529060010190602001808311610ecb57829003601f168201915b505050505090806001018054610efd90614609565b80601f0160208091040260200160405190810160405280929190818152602001828054610f2990614609565b8015610f765780601f10610f4b57610100808354040283529160200191610f76565b820191906000526020600020905b815481529060010190602001808311610f5957829003601f168201915b5050505050908060020154905083565b610f97610f91612883565b82612944565b610fd6576040517f08c379a0000000000000000000000000000000000000000000000000000000008152600401610fcd90614307565b60405180910390fd5b610fe18383836125bb565b505050565b3373ffffffffffffffffffffffffffffffffffffffff16611006846115f6565b73ffffffffffffffffffffffffffffffffffffffff161461105c576040517f08c379a0000000000000000000000000000000000000000000000000000000008152600401611053906140a7565b60405180910390fd5b6000821161109f576040517f08c379a000000000000000000000000000000000000000000000000000000000815260040161109690614127565b60405180910390fd5b8160086000858152602001908152602001600020819055506009600760003373ffffffffffffffffffffffffffffffffffffffff1673ffffffffffffffffffffffffffffffffffffffff1681526020019081526020016000208281548110611130577f4e487b7100000000000000000000000000000000000000000000000000000000600052603260045260246000fd5b90600052602060002090600302019080600181540180825580915050600190039060005260206000209060030201600090919091909150600082018160000190805461117b90614609565b611186929190613392565b50600182018160010190805461119b90614609565b6111a6929190613392565b50600282015481600201555050505050565b6111d383838360405180602001604052806000815250611e37565b505050565b60006040518060600160405280858152602001848152602001600081525090508060066000848152602001908152602001600020600082015181600001908051906020019061122892919061345f565b50602082015181600101908051906020019061124592919061345f565b5060408201518160020155905050600760003373ffffffffffffffffffffffffffffffffffffffff1673ffffffffffffffffffffffffffffffffffffffff16815260200190815260200160002081908060018154018082558091505060019003906000526020600020906003020160009091909190915060008201518160000190805190602001906112d892919061345f565b5060208201518160010190805190602001906112f592919061345f565b5060408201518160020155505061130c3383612a22565b50505050565b60606009805480602002602001604051908101604052809291908181526020016000905b82821015611496578382906000526020600020906003020160405180606001604052908160008201805461136990614609565b80601f016020809104026020016040519081016040528092919081815260200182805461139590614609565b80156113e25780601f106113b7576101008083540402835291602001916113e2565b820191906000526020600020905b8154815290600101906020018083116113c557829003601f168201915b505050505081526020016001820180546113fb90614609565b80601f016020809104026020016040519081016040528092919081815260200182805461142790614609565b80156114745780601f1061144957610100808354040283529160200191611474565b820191906000526020600020905b81548152906001019060200180831161145757829003601f168201915b5050505050815260200160028201548152505081526020019060010190611336565b50505050905090565b600760205281600052604060002081815481106114bb57600080fd5b9060005260206000209060030201600091509150508060000180546114df90614609565b80601f016020809104026020016040519081016040528092919081815260200182805461150b90614609565b80156115585780601f1061152d57610100808354040283529160200191611558565b820191906000526020600020905b81548152906001019060200180831161153b57829003601f168201915b50505050509080600101805461156d90614609565b80601f016020809104026020016040519081016040528092919081815260200182805461159990614609565b80156115e65780601f106115bb576101008083540402835291602001916115e6565b820191906000526020600020905b8154815290600101906020018083116115c957829003601f168201915b5050505050908060020154905083565b6000806002600084815260200190815260200160002060009054906101000a900473ffffffffffffffffffffffffffffffffffffffff169050600073ffffffffffffffffffffffffffffffffffffffff168173ffffffffffffffffffffffffffffffffffffffff16141561169f576040517f08c379a000000000000000000000000000000000000000000000000000000000815260040161169690614207565b60405180910390fd5b80915050919050565b60008073ffffffffffffffffffffffffffffffffffffffff168273ffffffffffffffffffffffffffffffffffffffff161415611719576040517f08c379a0000000000000000000000000000000000000000000000000000000008152600401611710906141e7565b60405180910390fd5b600360008373ffffffffffffffffffffffffffffffffffffffff1673ffffffffffffffffffffffffffffffffffffffff168152602001908152602001600020549050919050565b611769836115f6565b73ffffffffffffffffffffffffffffffffffffffff163373ffffffffffffffffffffffffffffffffffffffff1614806117d557506117a6826115f6565b73ffffffffffffffffffffffffffffffffffffffff163373ffffffffffffffffffffffffffffffffffffffff16145b611814576040517f08c379a000000000000000000000000000000000000000000000000000000000815260040161180b906140e7565b60405180910390fd5b600061181f846115f6565b9050600061182c846115f6565b90506118398282876125bb565b6118448183866125bb565b600080600090505b6001600760008573ffffffffffffffffffffffffffffffffffffffff1673ffffffffffffffffffffffffffffffffffffffff1681526020019081526020016000208054905061189b919061451f565b811015611a5857600660008781526020019081526020016000206000016040516118c59190613f61565b6040518091039020600760008573ffffffffffffffffffffffffffffffffffffffff1673ffffffffffffffffffffffffffffffffffffffff1681526020019081526020016000208281548110611944577f4e487b7100000000000000000000000000000000000000000000000000000000600052603260045260246000fd5b90600052602060002090600302016000016040516119629190613f61565b6040518091039020148015611a3c5750600660008781526020019081526020016000206001016040516119959190613f61565b6040518091039020600760008573ffffffffffffffffffffffffffffffffffffffff1673ffffffffffffffffffffffffffffffffffffffff1681526020019081526020016000208281548110611a14577f4e487b7100000000000000000000000000000000000000000000000000000000600052603260045260246000fd5b9060005260206000209060030201600101604051611a329190613f61565b6040518091039020145b15611a45578091505b8080611a509061466c565b91505061184c565b50611a638484612bf0565b611a6d8183612bf0565b600760008473ffffffffffffffffffffffffffffffffffffffff1673ffffffffffffffffffffffffffffffffffffffff1681526020019081526020016000206006600087815260200190815260200160002090806001815401808255809150506001900390600052602060002090600302016000909190919091506000820181600001908054611afc90614609565b611b07929190613392565b506001820181600101908054611b1c90614609565b611b27929190613392565b50600282015481600201555050600760008373ffffffffffffffffffffffffffffffffffffffff1673ffffffffffffffffffffffffffffffffffffffff1681526020019081526020016000206006600088815260200190815260200160002090806001815401808255809150506001900390600052602060002090600302016000909190919091506000820181600001908054611bc390614609565b611bce929190613392565b506001820181600101908054611be390614609565b611bee929190613392565b50600282015481600201555050611c0481612e4f565b505050505050565b60086020528060005260406000206000915090505481565b606060018054611c3390614609565b80601f0160208091040260200160405190810160405280929190818152602001828054611c5f90614609565b8015611cac5780601f10611c8157610100808354040283529160200191611cac565b820191906000526020600020905b815481529060010190602001808311611c8f57829003601f168201915b5050505050905090565b611cbe612883565b73ffffffffffffffffffffffffffffffffffffffff168273ffffffffffffffffffffffffffffffffffffffff161415611d2c576040517f08c379a0000000000000000000000000000000000000000000000000000000008152600401611d2390614187565b60405180910390fd5b8060056000611d39612883565b73ffffffffffffffffffffffffffffffffffffffff1673ffffffffffffffffffffffffffffffffffffffff16815260200190815260200160002060008473ffffffffffffffffffffffffffffffffffffffff1673ffffffffffffffffffffffffffffffffffffffff16815260200190815260200160002060006101000a81548160ff0219169083151502179055508173ffffffffffffffffffffffffffffffffffffffff16611de6612883565b73ffffffffffffffffffffffffffffffffffffffff167f17307eab39ab6107e8899845ad3d59bd9653f200f220920489ca2b5937696c3183604051611e2b9190614025565b60405180910390a35050565b611e48611e42612883565b83612944565b611e87576040517f08c379a0000000000000000000000000000000000000000000000000000000008152600401611e7e90614307565b60405180910390fd5b611e9384848484612fb9565b50505050565b6060600760003373ffffffffffffffffffffffffffffffffffffffff1673ffffffffffffffffffffffffffffffffffffffff168152602001908152602001600020805480602002602001604051908101604052809291908181526020016000905b8282101561205a5783829060005260206000209060030201604051806060016040529081600082018054611f2d90614609565b80601f0160208091040260200160405190810160405280929190818152602001828054611f5990614609565b8015611fa65780601f10611f7b57610100808354040283529160200191611fa6565b820191906000526020600020905b815481529060010190602001808311611f8957829003601f168201915b50505050508152602001600182018054611fbf90614609565b80601f0160208091040260200160405190810160405280929190818152602001828054611feb90614609565b80156120385780601f1061200d57610100808354040283529160200191612038565b820191906000526020600020905b81548152906001019060200180831161201b57829003601f168201915b5050505050815260200160028201548152505081526020019060010190611efa565b50505050905090565b606061206e82612817565b6120ad576040517f08c379a00000000000000000000000000000000000000000000000000000000081526004016120a490614287565b60405180910390fd5b60006120b7613015565b905060008151116120d75760405180602001604052806000815250612102565b806120e18461302c565b6040516020016120f2929190613f78565b6040516020818303038152906040525b915050919050565b6121126134e5565b6006600083815260200190815260200160002060405180606001604052908160008201805461214090614609565b80601f016020809104026020016040519081016040528092919081815260200182805461216c90614609565b80156121b95780601f1061218e576101008083540402835291602001916121b9565b820191906000526020600020905b81548152906001019060200180831161219c57829003601f168201915b505050505081526020016001820180546121d290614609565b80601f01602080910402602001604051908101604052809291908181526020018280546121fe90614609565b801561224b5780601f106122205761010080835404028352916020019161224b565b820191906000526020600020905b81548152906001019060200180831161222e57829003601f168201915b505050505081526020016002820154815250509050919050565b6000600560008473ffffffffffffffffffffffffffffffffffffffff1673ffffffffffffffffffffffffffffffffffffffff16815260200190815260200160002060008373ffffffffffffffffffffffffffffffffffffffff1673ffffffffffffffffffffffffffffffffffffffff16815260200190815260200160002060009054906101000a900460ff16905092915050565b600060086000848152602001908152602001600020541161234f576040517f08c379a0000000000000000000000000000000000000000000000000000000008152600401612346906142e7565b60405180910390fd5b6000600860008481526020019081526020016000205490506000612372846115f6565b90508134116123b6576040517f08c379a00000000000000000000000000000000000000000000000000000000081526004016123ad906142a7565b60405180910390fd5b6123c18133866125bb565b60006123cc826131d9565b90508073ffffffffffffffffffffffffffffffffffffffff166108fc849081150290604051600060405180830381858888f19350505050158015612414573d6000803e3d6000fd5b5082341115612470573373ffffffffffffffffffffffffffffffffffffffff166108fc8434612443919061451f565b9081150290604051600060405180830381858888f1935050505015801561246e573d6000803e3d6000fd5b505b61247984612e4f565b6124838483612bf0565b600760003373ffffffffffffffffffffffffffffffffffffffff1673ffffffffffffffffffffffffffffffffffffffff168152602001908152602001600020600660008781526020019081526020016000209080600181540180825580915050600190039060005260206000209060030201600090919091909150600082018160000190805461251290614609565b61251d929190613392565b50600182018160010190805461253290614609565b61253d929190613392565b506002820154816002015550505050505050565b60007f01ffc9a7000000000000000000000000000000000000000000000000000000007bffffffffffffffffffffffffffffffffffffffffffffffffffffffff1916827bffffffffffffffffffffffffffffffffffffffffffffffffffffffff1916149050919050565b8273ffffffffffffffffffffffffffffffffffffffff166125db826115f6565b73ffffffffffffffffffffffffffffffffffffffff1614612631576040517f08c379a000000000000000000000000000000000000000000000000000000000815260040161262890614267565b60405180910390fd5b600073ffffffffffffffffffffffffffffffffffffffff168273ffffffffffffffffffffffffffffffffffffffff1614156126a1576040517f08c379a000000000000000000000000000000000000000000000000000000000815260040161269890614167565b60405180910390fd5b6126ac8383836131e3565b6126b760008261288b565b6001600360008573ffffffffffffffffffffffffffffffffffffffff1673ffffffffffffffffffffffffffffffffffffffff1681526020019081526020016000206000828254612707919061451f565b925050819055506001600360008473ffffffffffffffffffffffffffffffffffffffff1673ffffffffffffffffffffffffffffffffffffffff168152602001908152602001600020600082825461275e9190614498565b92505081905550816002600083815260200190815260200160002060006101000a81548173ffffffffffffffffffffffffffffffffffffffff021916908373ffffffffffffffffffffffffffffffffffffffff160217905550808273ffffffffffffffffffffffffffffffffffffffff168473ffffffffffffffffffffffffffffffffffffffff167fddf252ad1be2c89b69c2b068fc378daa952ba7f163c4a11628f55a4df523b3ef60405160405180910390a4505050565b60008073ffffffffffffffffffffffffffffffffffffffff166002600084815260200190815260200160002060009054906101000a900473ffffffffffffffffffffffffffffffffffffffff1673ffffffffffffffffffffffffffffffffffffffff1614159050919050565b600033905090565b816004600083815260200190815260200160002060006101000a81548173ffffffffffffffffffffffffffffffffffffffff021916908373ffffffffffffffffffffffffffffffffffffffff160217905550808273ffffffffffffffffffffffffffffffffffffffff166128fe836115f6565b73ffffffffffffffffffffffffffffffffffffffff167f8c5be1e5ebec7d5bd14f71427d1e84f3dd0314c0f7b2291e5b200ac8c7c3b92560405160405180910390a45050565b600061294f82612817565b61298e576040517f08c379a0000000000000000000000000000000000000000000000000000000008152600401612985906141a7565b60405180910390fd5b6000612999836115f6565b90508073ffffffffffffffffffffffffffffffffffffffff168473ffffffffffffffffffffffffffffffffffffffff161480612a0857508373ffffffffffffffffffffffffffffffffffffffff166129f084610caf565b73ffffffffffffffffffffffffffffffffffffffff16145b80612a195750612a188185612265565b5b91505092915050565b600073ffffffffffffffffffffffffffffffffffffffff168273ffffffffffffffffffffffffffffffffffffffff161415612a92576040517f08c379a0000000000000000000000000000000000000000000000000000000008152600401612a8990614227565b60405180910390fd5b612a9b81612817565b15612adb576040517f08c379a0000000000000000000000000000000000000000000000000000000008152600401612ad290614147565b60405180910390fd5b612ae7600083836131e3565b6001600360008473ffffffffffffffffffffffffffffffffffffffff1673ffffffffffffffffffffffffffffffffffffffff1681526020019081526020016000206000828254612b379190614498565b92505081905550816002600083815260200190815260200160002060006101000a81548173ffffffffffffffffffffffffffffffffffffffff021916908373ffffffffffffffffffffffffffffffffffffffff160217905550808273ffffffffffffffffffffffffffffffffffffffff16600073ffffffffffffffffffffffffffffffffffffffff167fddf252ad1be2c89b69c2b068fc378daa952ba7f163c4a11628f55a4df523b3ef60405160405180910390a45050565b600760008273ffffffffffffffffffffffffffffffffffffffff1673ffffffffffffffffffffffffffffffffffffffff1681526020019081526020016000206001600760008473ffffffffffffffffffffffffffffffffffffffff1673ffffffffffffffffffffffffffffffffffffffff16815260200190815260200160002080549050612c7e919061451f565b81548110612cb5577f4e487b7100000000000000000000000000000000000000000000000000000000600052603260045260246000fd5b9060005260206000209060030201600760008373ffffffffffffffffffffffffffffffffffffffff1673ffffffffffffffffffffffffffffffffffffffff1681526020019081526020016000208381548110612d3a577f4e487b7100000000000000000000000000000000000000000000000000000000600052603260045260246000fd5b90600052602060002090600302016000820181600001908054612d5c90614609565b612d67929190613392565b506001820181600101908054612d7c90614609565b612d87929190613392565b5060028201548160020155905050600760008273ffffffffffffffffffffffffffffffffffffffff1673ffffffffffffffffffffffffffffffffffffffff168152602001908152602001600020805480612e0a577f4e487b7100000000000000000000000000000000000000000000000000000000600052603160045260246000fd5b600190038181906000526020600020906003020160008082016000612e2f919061341f565b600182016000612e3f919061341f565b6002820160009055505090555050565b60096001600980549050612e63919061451f565b81548110612e9a577f4e487b7100000000000000000000000000000000000000000000000000000000600052603260045260246000fd5b906000526020600020906003020160098281548110612ee2577f4e487b7100000000000000000000000000000000000000000000000000000000600052603260045260246000fd5b90600052602060002090600302016000820181600001908054612f0490614609565b612f0f929190613392565b506001820181600101908054612f2490614609565b612f2f929190613392565b50600282015481600201559050506009805480612f75577f4e487b7100000000000000000000000000000000000000000000000000000000600052603160045260246000fd5b600190038181906000526020600020906003020160008082016000612f9a919061341f565b600182016000612faa919061341f565b60028201600090555050905550565b612fc48484846125bb565b612fd0848484846131e8565b61300f576040517f08c379a000000000000000000000000000000000000000000000000000000000815260040161300690614107565b60405180910390fd5b50505050565b606060405180602001604052806000815250905090565b60606000821415613074576040518060400160405280600181526020017f300000000000000000000000000000000000000000000000000000000000000081525090506131d4565b600082905060005b600082146130a657808061308f9061466c565b915050600a8261309f91906144ee565b915061307c565b60008167ffffffffffffffff8111156130e8577f4e487b7100000000000000000000000000000000000000000000000000000000600052604160045260246000fd5b6040519080825280601f01601f19166020018201604052801561311a5781602001600182028036833780820191505090505b5090505b600085146131cd57600182613133919061451f565b9150600a8561314291906146b5565b603061314e9190614498565b60f81b81838151811061318a577f4e487b7100000000000000000000000000000000000000000000000000000000600052603260045260246000fd5b60200101907effffffffffffffffffffffffffffffffffffffffffffffffffffffffffffff1916908160001a905350600a856131c691906144ee565b945061311e565b8093505050505b919050565b6000819050919050565b505050565b60006132098473ffffffffffffffffffffffffffffffffffffffff1661337f565b15613372578373ffffffffffffffffffffffffffffffffffffffff1663150b7a02613232612883565b8786866040518563ffffffff1660e01b81526004016132549493929190613fb7565b602060405180830381600087803b15801561326e57600080fd5b505af192505050801561329f57506040513d601f19601f8201168201806040525081019061329c919061387b565b60015b613322573d80600081146132cf576040519150601f19603f3d011682016040523d82523d6000602084013e6132d4565b606091505b5060008151141561331a576040517f08c379a000000000000000000000000000000000000000000000000000000000815260040161331190614107565b60405180910390fd5b805181602001fd5b63150b7a0260e01b7bffffffffffffffffffffffffffffffffffffffffffffffffffffffff1916817bffffffffffffffffffffffffffffffffffffffffffffffffffffffff191614915050613377565b600190505b949350505050565b600080823b905060008111915050919050565b82805461339e90614609565b90600052602060002090601f0160209004810192826133c0576000855561340e565b82601f106133d1578054855561340e565b8280016001018555821561340e57600052602060002091601f016020900482015b8281111561340d5782548255916001019190600101906133f2565b5b50905061341b9190613506565b5090565b50805461342b90614609565b6000825580601f1061343d575061345c565b601f01602090049060005260206000209081019061345b9190613506565b5b50565b82805461346b90614609565b90600052602060002090601f01602090048101928261348d57600085556134d4565b82601f106134a657805160ff19168380011785556134d4565b828001600101855582156134d4579182015b828111156134d35782518255916020019190600101906134b8565b5b5090506134e19190613506565b5090565b60405180606001604052806060815260200160608152602001600081525090565b5b8082111561351f576000816000905550600101613507565b5090565b600061353661353184614389565b614364565b90508281526020810184848401111561354e57600080fd5b6135598482856145c7565b509392505050565b600061357461356f846143ba565b614364565b90508281526020810184848401111561358c57600080fd5b6135978482856145c7565b509392505050565b6000813590506135ae81614cfb565b92915050565b6000813590506135c381614d12565b92915050565b6000813590506135d881614d29565b92915050565b6000815190506135ed81614d29565b92915050565b600082601f83011261360457600080fd5b8135613614848260208601613523565b91505092915050565b600082601f83011261362e57600080fd5b813561363e848260208601613561565b91505092915050565b60008135905061365681614d40565b92915050565b60006020828403121561366e57600080fd5b600061367c8482850161359f565b91505092915050565b6000806040838503121561369857600080fd5b60006136a68582860161359f565b92505060206136b78582860161359f565b9150509250929050565b6000806000606084860312156136d657600080fd5b60006136e48682870161359f565b93505060206136f58682870161359f565b925050604061370686828701613647565b9150509250925092565b6000806000806080858703121561372657600080fd5b60006137348782880161359f565b94505060206137458782880161359f565b935050604061375687828801613647565b925050606085013567ffffffffffffffff81111561377357600080fd5b61377f878288016135f3565b91505092959194509250565b6000806040838503121561379e57600080fd5b60006137ac8582860161359f565b92505060206137bd858286016135b4565b9150509250929050565b600080604083850312156137da57600080fd5b60006137e88582860161359f565b92505060206137f985828601613647565b9150509250929050565b60008060006060848603121561381857600080fd5b60006138268682870161359f565b935050602061383786828701613647565b925050604061384886828701613647565b9150509250925092565b60006020828403121561386457600080fd5b6000613872848285016135c9565b91505092915050565b60006020828403121561388d57600080fd5b600061389b848285016135de565b91505092915050565b6000806000606084860312156138b957600080fd5b600084013567ffffffffffffffff8111156138d357600080fd5b6138df8682870161361d565b935050602084013567ffffffffffffffff8111156138fc57600080fd5b6139088682870161361d565b925050604061391986828701613647565b9150509250925092565b60006020828403121561393557600080fd5b600061394384828501613647565b91505092915050565b6000806040838503121561395f57600080fd5b600061396d85828601613647565b925050602061397e85828601613647565b9150509250929050565b60008060006060848603121561399d57600080fd5b60006139ab86828701613647565b93505060206139bc86828701613647565b92505060406139cd86828701613647565b9150509250925092565b60006139e38383613e95565b905092915050565b6139f481614553565b82525050565b6000613a0582614410565b613a0f818561443e565b935083602082028501613a21856143eb565b8060005b85811015613a5d5784840389528151613a3e85826139d7565b9450613a4983614431565b925060208a01995050600181019050613a25565b50829750879550505050505092915050565b613a7881614565565b82525050565b6000613a898261441b565b613a93818561444f565b9350613aa38185602086016145d6565b613aac816147a2565b840191505092915050565b60008154613ac481614609565b613ace8186614460565b94506001821660008114613ae95760018114613afa57613b2d565b60ff19831686528186019350613b2d565b613b03856143fb565b60005b83811015613b2557815481890152600182019150602081019050613b06565b838801955050505b50505092915050565b6000613b4182614426565b613b4b818561446b565b9350613b5b8185602086016145d6565b613b64816147a2565b840191505092915050565b6000613b7a82614426565b613b84818561447c565b9350613b948185602086016145d6565b613b9d816147a2565b840191505092915050565b6000613bb382614426565b613bbd818561448d565b9350613bcd8185602086016145d6565b80840191505092915050565b6000613be660278361447c565b9150613bf1826147b3565b604082019050919050565b6000613c09602b8361447c565b9150613c1482614802565b604082019050919050565b6000613c2c60278361447c565b9150613c3782614851565b604082019050919050565b6000613c4f60328361447c565b9150613c5a826148a0565b604082019050919050565b6000613c7260138361447c565b9150613c7d826148ef565b602082019050919050565b6000613c95601c8361447c565b9150613ca082614918565b602082019050919050565b6000613cb860248361447c565b9150613cc382614941565b604082019050919050565b6000613cdb60198361447c565b9150613ce682614990565b602082019050919050565b6000613cfe602c8361447c565b9150613d09826149b9565b604082019050919050565b6000613d2160388361447c565b9150613d2c82614a08565b604082019050919050565b6000613d44602a8361447c565b9150613d4f82614a57565b604082019050919050565b6000613d6760298361447c565b9150613d7282614aa6565b604082019050919050565b6000613d8a60208361447c565b9150613d9582614af5565b602082019050919050565b6000613dad602c8361447c565b9150613db882614b1e565b604082019050919050565b6000613dd060298361447c565b9150613ddb82614b6d565b604082019050919050565b6000613df3602f8361447c565b9150613dfe82614bbc565b604082019050919050565b6000613e16601d8361447c565b9150613e2182614c0b565b602082019050919050565b6000613e3960218361447c565b9150613e4482614c34565b604082019050919050565b6000613e5c601e8361447c565b9150613e6782614c83565b602082019050919050565b6000613e7f60318361447c565b9150613e8a82614cac565b604082019050919050565b60006060830160008301518482036000860152613eb28282613b36565b91505060208301518482036020860152613ecc8282613b36565b9150506040830151613ee16040860182613f43565b508091505092915050565b60006060830160008301518482036000860152613f098282613b36565b91505060208301518482036020860152613f238282613b36565b9150506040830151613f386040860182613f43565b508091505092915050565b613f4c816145bd565b82525050565b613f5b816145bd565b82525050565b6000613f6d8284613ab7565b915081905092915050565b6000613f848285613ba8565b9150613f908284613ba8565b91508190509392505050565b6000602082019050613fb160008301846139eb565b92915050565b6000608082019050613fcc60008301876139eb565b613fd960208301866139eb565b613fe66040830185613f52565b8181036060830152613ff88184613a7e565b905095945050505050565b6000602082019050818103600083015261401d81846139fa565b905092915050565b600060208201905061403a6000830184613a6f565b92915050565b6000602082019050818103600083015261405a8184613b6f565b905092915050565b6000606082019050818103600083015261407c8186613b6f565b905081810360208301526140908185613b6f565b905061409f6040830184613f52565b949350505050565b600060208201905081810360008301526140c081613bd9565b9050919050565b600060208201905081810360008301526140e081613bfc565b9050919050565b6000602082019050818103600083015261410081613c1f565b9050919050565b6000602082019050818103600083015261412081613c42565b9050919050565b6000602082019050818103600083015261414081613c65565b9050919050565b6000602082019050818103600083015261416081613c88565b9050919050565b6000602082019050818103600083015261418081613cab565b9050919050565b600060208201905081810360008301526141a081613cce565b9050919050565b600060208201905081810360008301526141c081613cf1565b9050919050565b600060208201905081810360008301526141e081613d14565b9050919050565b6000602082019050818103600083015261420081613d37565b9050919050565b6000602082019050818103600083015261422081613d5a565b9050919050565b6000602082019050818103600083015261424081613d7d565b9050919050565b6000602082019050818103600083015261426081613da0565b9050919050565b6000602082019050818103600083015261428081613dc3565b9050919050565b600060208201905081810360008301526142a081613de6565b9050919050565b600060208201905081810360008301526142c081613e09565b9050919050565b600060208201905081810360008301526142e081613e2c565b9050919050565b6000602082019050818103600083015261430081613e4f565b9050919050565b6000602082019050818103600083015261432081613e72565b9050919050565b600060208201905081810360008301526143418184613eec565b905092915050565b600060208201905061435e6000830184613f52565b92915050565b600061436e61437f565b905061437a828261463b565b919050565b6000604051905090565b600067ffffffffffffffff8211156143a4576143a3614773565b5b6143ad826147a2565b9050602081019050919050565b600067ffffffffffffffff8211156143d5576143d4614773565b5b6143de826147a2565b9050602081019050919050565b6000819050602082019050919050565b60008190508160005260206000209050919050565b600081519050919050565b600081519050919050565b600081519050919050565b6000602082019050919050565b600082825260208201905092915050565b600082825260208201905092915050565b600081905092915050565b600082825260208201905092915050565b600082825260208201905092915050565b600081905092915050565b60006144a3826145bd565b91506144ae836145bd565b9250827fffffffffffffffffffffffffffffffffffffffffffffffffffffffffffffffff038211156144e3576144e26146e6565b5b828201905092915050565b60006144f9826145bd565b9150614504836145bd565b92508261451457614513614715565b5b828204905092915050565b600061452a826145bd565b9150614535836145bd565b925082821015614548576145476146e6565b5b828203905092915050565b600061455e8261459d565b9050919050565b60008115159050919050565b60007fffffffff0000000000000000000000000000000000000000000000000000000082169050919050565b600073ffffffffffffffffffffffffffffffffffffffff82169050919050565b6000819050919050565b82818337600083830152505050565b60005b838110156145f45780820151818401526020810190506145d9565b83811115614603576000848401525b50505050565b6000600282049050600182168061462157607f821691505b6020821081141561463557614634614744565b5b50919050565b614644826147a2565b810181811067ffffffffffffffff8211171561466357614662614773565b5b80604052505050565b6000614677826145bd565b91507fffffffffffffffffffffffffffffffffffffffffffffffffffffffffffffffff8214156146aa576146a96146e6565b5b600182019050919050565b60006146c0826145bd565b91506146cb836145bd565b9250826146db576146da614715565b5b828206905092915050565b7f4e487b7100000000000000000000000000000000000000000000000000000000600052601160045260246000fd5b7f4e487b7100000000000000000000000000000000000000000000000000000000600052601260045260246000fd5b7f4e487b7100000000000000000000000000000000000000000000000000000000600052602260045260246000fd5b7f4e487b7100000000000000000000000000000000000000000000000000000000600052604160045260246000fd5b6000601f19601f8301169050919050565b7f596f752063616e27742073616c6520746865205374617220796f7520646f6e2760008201527f74206f776e656400000000000000000000000000000000000000000000000000602082015250565b7f596f752063616e2774207472616e7366657220746865205374617220796f752060008201527f646f6e2774206f776e6564000000000000000000000000000000000000000000602082015250565b7f412075736572206f6e6c792063616e2065786368616e676520796f7572206f7760008201527f6e20737461727300000000000000000000000000000000000000000000000000602082015250565b7f4552433732313a207472616e7366657220746f206e6f6e20455243373231526560008201527f63656976657220696d706c656d656e7465720000000000000000000000000000602082015250565b7f50726963652063616e2774206265205a45524f00000000000000000000000000600082015250565b7f4552433732313a20746f6b656e20616c7265616479206d696e74656400000000600082015250565b7f4552433732313a207472616e7366657220746f20746865207a65726f2061646460008201527f7265737300000000000000000000000000000000000000000000000000000000602082015250565b7f4552433732313a20617070726f766520746f2063616c6c657200000000000000600082015250565b7f4552433732313a206f70657261746f7220717565727920666f72206e6f6e657860008201527f697374656e7420746f6b656e0000000000000000000000000000000000000000602082015250565b7f4552433732313a20617070726f76652063616c6c6572206973206e6f74206f7760008201527f6e6572206e6f7220617070726f76656420666f7220616c6c0000000000000000602082015250565b7f4552433732313a2062616c616e636520717565727920666f7220746865207a6560008201527f726f206164647265737300000000000000000000000000000000000000000000602082015250565b7f4552433732313a206f776e657220717565727920666f72206e6f6e657869737460008201527f656e7420746f6b656e0000000000000000000000000000000000000000000000602082015250565b7f4552433732313a206d696e7420746f20746865207a65726f2061646472657373600082015250565b7f4552433732313a20617070726f76656420717565727920666f72206e6f6e657860008201527f697374656e7420746f6b656e0000000000000000000000000000000000000000602082015250565b7f4552433732313a207472616e73666572206f6620746f6b656e2074686174206960008201527f73206e6f74206f776e0000000000000000000000000000000000000000000000602082015250565b7f4552433732314d657461646174613a2055524920717565727920666f72206e6f60008201527f6e6578697374656e7420746f6b656e0000000000000000000000000000000000602082015250565b7f596f75206e65656420746f206861766520656e6f756768204574686572000000600082015250565b7f4552433732313a20617070726f76616c20746f2063757272656e74206f776e6560008201527f7200000000000000000000000000000000000000000000000000000000000000602082015250565b7f54686520537461722073686f756c6420626520757020666f722073616c650000600082015250565b7f4552433732313a207472616e736665722063616c6c6572206973206e6f74206f60008201527f776e6572206e6f7220617070726f766564000000000000000000000000000000602082015250565b614d0481614553565b8114614d0f57600080fd5b50565b614d1b81614565565b8114614d2657600080fd5b50565b614d3281614571565b8114614d3d57600080fd5b50565b614d49816145bd565b8114614d5457600080fd5b5056fea2646970667358221220df6124e1a10b3ae935832cb3bf700b2b7ac7e79e76972c70480c7f9062a8724a64736f6c63430008040033",
  "immutableReferences": {},
  "source": "// SPDX-License-Identifier: MIT\npragma solidity ^0.8.4;\n\n//Importing openzeppelin-solidity ERC-721 implemented Standard\nimport \"../../node_modules/@openzeppelin/contracts/token/ERC721/ERC721.sol\";\n\n// StarNotary Contract declaration inheritance the ERC721 openzeppelin implementation\ncontract StarNotary is ERC721 {\n\n    // Implement Task 1 Add a name and symbol properties\n    // name: Is a short name to your token\n    // symbol: Is a short string like 'USD' -> 'American Dollar'\n    constructor() ERC721(\"StarToken\", \"STR\") {}\n\n    // Star data\n    struct Star {\n        string name;\n        string color;\n        uint256 price;\n    }\n\n    // mapping the Star with the TokeId\n    mapping(uint256 => Star) public tokenIdToStarInfo;\n\n    // mapping the Owner Address with its stars\n    // Project increment\n    mapping(address => Star[]) public starsByOwner;\n\n    // mapping the TokenId and price\n    mapping(uint256 => uint256) public starsForSalePrice;\n\n    Star[] public starsForSale;\n\n    // Create Star using the Struct\n    function createStar(string memory _name, string memory _color, uint256 _tokenId) public { // Passing the name and tokenId as a parameters\n        Star memory newStar = Star(_name, _color, 0); // Star is an struct so we are creating a new Star\n        tokenIdToStarInfo[_tokenId] = newStar; // Creating in memory the Star -> tokenId mapping\n\n        // Project increment\n        starsByOwner[msg.sender].push(newStar);\n\n        _mint(msg.sender, _tokenId); // _mint assign the the star with _tokenId to the sender address (ownership)\n    }\n\n    // Putting an Star for sale (Adding the star tokenid into the mapping starsForSalePrice\n    // first verify that the sender is the owner)\n    function putStarUpForSale(uint256 _tokenId, uint256 _price, uint _index) public {\n        require(ownerOf(_tokenId) == msg.sender, \"You can't sale the Star you don't owned\");\n        require(_price > 0, \"Price can't be ZERO\");\n        starsForSalePrice[_tokenId] = _price;\n        starsForSale.push(starsByOwner[msg.sender][_index]);\n    }\n\n    // Function that allows you to convert an address into a payable address\n    function _make_payable(address x) internal pure returns (address payable) {\n        return payable (address(uint160(x)));\n    }\n\n    function buyStar(uint256 _tokenId, uint _index) public  payable {\n        require(starsForSalePrice[_tokenId] > 0, \"The Star should be up for sale\");\n        uint256 starCost = starsForSalePrice[_tokenId];\n        address ownerAddress = ownerOf(_tokenId);\n\n        require(msg.value > starCost, \"You need to have enough Ether\");\n\n        _transfer(ownerAddress, msg.sender, _tokenId); // We can't use _addTokenTo or_removeTokenFrom functions, now we have to use _transferFrom\n        address payable ownerAddressPayable = _make_payable(ownerAddress); // We need to make this conversion to be able to use transfer() function to transfer ethers\n\n        ownerAddressPayable.transfer(starCost);\n\n        if(msg.value > starCost) {\n            payable (msg.sender).transfer(msg.value - starCost);\n        }\n\n        _removeStarFromStarsForSaleAfterBuy(_index);\n        _removeStarFromStarsByOwnerAfterPutToSell(_index, ownerAddress);\n\n        starsByOwner[msg.sender].push(tokenIdToStarInfo[_tokenId]);\n    }\n\n    // Implement Task 1 lookUptokenIdToStarInfo\n    function lookUptokenIdToStarInfo (uint _tokenId) public view returns (Star memory) {\n        //1. You should return the Star saved in tokenIdToStarInfo mapping\n        return tokenIdToStarInfo[_tokenId];\n    }\n\n    // Implement Task 1 Exchange Stars function\n    function exchangeStars(uint256 _tokenId1, uint256 _tokenId2, uint _index) public {\n        //1. Passing to star tokenId you will need to check if the owner of _tokenId1 or _tokenId2 is the sender\n        require(msg.sender == ownerOf(_tokenId1) || msg.sender == ownerOf(_tokenId2), \"A user only can exchange your own stars\");\n        //2. You don't have to check for the price of the token (star)\n        //3. Get the owner of the two tokens (ownerOf(_tokenId1), ownerOf(_tokenId1)\n        address user1 = ownerOf(_tokenId1);\n        address user2 = ownerOf(_tokenId2);\n        //4. Use _transferFrom function to exchange the tokens.\n        _transfer(user1, user2, _tokenId1);\n        _transfer(user2, user1, _tokenId2);\n\n        uint star2Index;\n\n        for(uint i=0; i < starsByOwner[user2].length - 1 ; i++){\n          if(keccak256(bytes(starsByOwner[user2][i].name)) == keccak256(bytes(tokenIdToStarInfo[_tokenId2].name)) &&\n            keccak256(bytes(starsByOwner[user2][i].color)) == keccak256(bytes(tokenIdToStarInfo[_tokenId2].color))){\n              star2Index = i;\n          }\n        }\n        _removeStarFromStarsByOwnerAfterPutToSell(_index, user1);\n        _removeStarFromStarsByOwnerAfterPutToSell(star2Index, user2);\n\n        starsByOwner[user1].push(tokenIdToStarInfo[_tokenId2]);\n        starsByOwner[user2].push(tokenIdToStarInfo[_tokenId1]);\n\n        _removeStarFromStarsForSaleAfterBuy(star2Index);\n    }\n\n    // Implement Task 1 Transfer Stars\n    function transferStar(address _to1, uint256 _tokenId, uint _index) public {\n        //1. Check if the sender is the ownerOf(_tokenId)\n        require(msg.sender == ownerOf(_tokenId), \"You can't transfer the Star you don't owned\");\n        //2. Use the transferFrom(from, to, tokenId); function to transfer the Star\n        _transfer(msg.sender, _to1, _tokenId);\n\n        starsByOwner[msg.sender][_index] = starsByOwner[msg.sender][starsByOwner[msg.sender].length - 1];\n        starsByOwner[msg.sender].pop();\n\n        starsByOwner[_to1].push(tokenIdToStarInfo[_tokenId]);\n    }\n\n    function getStarsByOwner() public view returns (Star [] memory){\n        return starsByOwner[msg.sender];\n    }\n\n    function _removeStarFromStarsByOwnerAfterPutToSell(uint _index, address ownerAddress) internal {\n      starsByOwner[ownerAddress][_index] = starsByOwner[ownerAddress][starsByOwner[ownerAddress].length - 1];\n      starsByOwner[ownerAddress].pop();\n    }\n\n    function _removeStarFromStarsForSaleAfterBuy(uint _index) internal {\n      starsForSale[_index] = starsForSale[starsForSale.length - 1];\n      starsForSale.pop();\n    }\n\n    function getStarsForSale() public view returns (Star [] memory){\n        return starsForSale;\n    }\n\n}\n",
  "sourcePath": "/media/snowman/b3db83e2-fb87-46a1-bcf8-0d77015a3479/luiz/Udacity/Projects/project02/udacity_project_2/frontend/src/contracts/StarNotary.sol",
  "compiler": {
    "name": "solc",
    "version": "0.8.4+commit.c7e474f2.Emscripten.clang"
  },
  "schemaVersion": "3.2.3",
  "updatedAt": "2021-07-30T01:50:28.069Z",
  "networkType": "ethereum",
  "devdoc": {
    "kind": "dev",
    "methods": {
      "approve(address,uint256)": {
        "details": "See {IERC721-approve}."
      },
      "balanceOf(address)": {
        "details": "See {IERC721-balanceOf}."
      },
      "getApproved(uint256)": {
        "details": "See {IERC721-getApproved}."
      },
      "isApprovedForAll(address,address)": {
        "details": "See {IERC721-isApprovedForAll}."
      },
      "name()": {
        "details": "See {IERC721Metadata-name}."
      },
      "ownerOf(uint256)": {
        "details": "See {IERC721-ownerOf}."
      },
      "safeTransferFrom(address,address,uint256)": {
        "details": "See {IERC721-safeTransferFrom}."
      },
      "safeTransferFrom(address,address,uint256,bytes)": {
        "details": "See {IERC721-safeTransferFrom}."
      },
      "setApprovalForAll(address,bool)": {
        "details": "See {IERC721-setApprovalForAll}."
      },
      "supportsInterface(bytes4)": {
        "details": "See {IERC165-supportsInterface}."
      },
      "symbol()": {
        "details": "See {IERC721Metadata-symbol}."
      },
      "tokenURI(uint256)": {
        "details": "See {IERC721Metadata-tokenURI}."
      },
      "transferFrom(address,address,uint256)": {
        "details": "See {IERC721-transferFrom}."
      }
    },
    "version": 1
  },
  "userdoc": {
    "kind": "user",
    "methods": {},
    "version": 1
  }
}